:100000000C94AA000C94D2000C94D2000C94FA0226
:100010000C9424030C944E030C94D2000C94D20044
:100020000C94D2000C94D2000C94D2000C94D20008
:100030000C94D2000C94D2000C94D2000C94D200F8
:100040000C942A0F0C94D2000C94D2000C94D20081
:100050000C94D2000C94D2000C94D2000C94D200D8
:100060000C94D2000C94D20000C2010001001100D7
:1000700011000D0000E100000A002500250022000B
:10008000009600001900390039003600127A00008D
:100090001F004600460044008070000022004D0012
:1000A0004D004A00004B00003600750075007200DC
:1000B000403800004A009C009C0099008025000008
:1000C0007200EC00EC00E900C0120000E900DA0167
:1000D000DA01D70160090000D701B603B603B30304
:1000E000B0040000B3036E076E076B072C0100001D
:1000F000DC0EC11DC11DBE1D000000002400270034
:100100002A0000000000250028002B00000000004D
:100110002300260029000404040404040404020249
:100120000202020203030303030301020408102076
:100130004080010204081020010204081020000081
:100140000007000201000003040600000000000098
:100150000000800511241FBECFEFD8E0DEBFCDBF69
:1001600012E0A0E0B1E0E2E8F6E202C005900D92F4
:10017000A437B107D9F713E0A4E7B2E001C01D929C
:10018000A730B107E1F711E0C4E5D1E004C0229740
:10019000FE010E940413C235D107C9F70E94230F44
:1001A0000C943F130C940000A0E0B0E0EAEDF0E006
:1001B0000C941013EC01A880B980CA80DB80A114D4
:1001C000B104C104D10441F484E2A82E89EDB82E13
:1001D0008BE5C82E87E0D82EC601B5012DE133EF9F
:1001E00041E050E00E94D31227EA31E440E050E0C1
:1001F0000E947F127B018C01C601B5012DE133EF16
:1002000041E050E00E94D312CA01B9012CEE34EF54
:100210004FEF5FEF0E947F126E0D7F1D801F911FB9
:1002200097FF04C061507040804090486883798394
:100230008A839B839B01AC015F77B901CA01CDB76B
:10024000DEB7EAE00C942C130E94D400089586E2F5
:1002500092E00E94D40008956093260270932702D2
:1002600080932802909329020895FC0110828FEF59
:1002700081831382128282E2848386E985831782D6
:1002800016820895EF92FF920F931F93CF93DF93FF
:10029000EC019B0177FF03C020E030E005C0653B27
:1002A000710514F024EB30E02983EC806D8170E05F
:1002B0006E197109882777FD8095982F982F872FC1
:1002C000762F662730E040E050E00E947F1224EB5A
:1002D00030E040E050E00E94D312FF2400E010E044
:1002E000102F0F2DFE2CEE24E20EF31E041F151FFF
:1002F000C801B70120E430E040E050E00E94D31292
:100300003B832A83DF91CF911F910F91FF90EF9054
:1003100008955F926F927F928F929F92AF92BF9259
:10032000CF92DF92EF92FF920F931F93DF93CF93C1
:10033000CDB7DEB76DB67EB6ADB65EB60E94720FB3
:1003400020917602309177024091780250917902A3
:10035000621773078407950750F02C5E3F4F4F4F8D
:100360005F4F621773078407950708F4AFC0609367
:100370007602709377028093780290937902E091ED
:100380007402F0917502BB2408C082819381892B8D
:1003900009F0B3940680F781E02D3097B1F7BB20C8
:1003A00009F494C08B2D90E0880F991F2DB73EB7AC
:1003B000281B390B0FB6F8943EBF0FBE2DBFCDB62C
:1003C000DEB60894C11CD11CA0917402B0917502D4
:1003D00020E013C012968D919C911397892B49F0C0
:1003E000E22FF0E0EE0FFF1FEC0DFD1DB183A083A7
:1003F0002F5F16960D90BC91A02D109759F72CC029
:10040000812F90E07C01EE0CFF1CEC0CFD1CD70151
:100410006D917C91FC013197EE0FFF1FEC0DFD1DDE
:1004200040815181DB0112962D913C911397DA01A5
:1004300012968D919C9113972817390730F4D701A4
:100440004D935C937183608301E01F5F1B15C0F2C5
:10045000002311F410E011C011E000E0F7CFE12F0C
:10046000F0E0EE0FFF1FEC0DFD1D0190F081E02D7F
:10047000808161E00E9422101F5F1B1580F3F6B49B
:10048000EE2400E010E08F2C99241EC0EE2DF0E049
:10049000EE0FFF1FEC0DFD1D0190F081E02D22817C
:1004A0003381280D391D86B58F1510F400501F4F6C
:1004B000F82EC8018F0D911D28173907A0F78081EC
:1004C00060E00E942210E394EB1400F38A2D952D36
:1004D0009C010FB6F8943EBF0FBE2DBF0FB6F89427
:1004E0007EBE0FBE6DBECF91DF911F910F91FF9029
:1004F000EF90DF90CF90BF90AF909F908F907F90C4
:100500006F905F9008950F931F938C01FC0160839F
:100510008FEF818313821282809174029091750211
:10052000978386831093750200937402808160E044
:100530000E942210F801808161E00E94021081E097
:100540001F910F9108951F93CF93DF93FC01A48116
:10055000B5812C917381272309F048C0818592854C
:1005600001972FEF8F3F9207D9F7C385D48531E0EC
:1005700060E040E050E010E0CE01212F01972FEF26
:100580008F3F9207D9F78C91872311F0632B03C01B
:10059000832F80956823330F4F5F5F4F483051059D
:1005A00059F78585968520E001972FEF8F3F9207B9
:1005B000D9F78091BC022091BD0290E001968F7323
:1005C000907030E08217930779F0E091BC02F0E080
:1005D000E458FD4F60838091BC0290E001968F73D8
:1005E00090708093BC0202C081E0818BDF91CF913B
:1005F0001F9108951F920F920FB60F9211242F93FF
:100600003F934F935F936F937F938F939F93AF939A
:10061000BF93EF93FF9380917A0290917B020097B2
:1006200011F00E94A302FF91EF91BF91AF919F91B2
:100630008F917F916F915F914F913F912F910F908B
:100640000FBE0F901F9018951F920F920FB60F922A
:1006500011242F933F934F935F936F937F938F93C7
:100660009F93AF93BF93EF93FF9380917A02909102
:100670007B02009711F00E94A302FF91EF91BF91BE
:10068000AF919F918F917F916F915F914F913F912A
:100690002F910F900FBE0F901F9018951F920F92E1
:1006A0000FB60F9211242F933F934F935F936F9345
:1006B0007F938F939F93AF93BF93EF93FF9380911B
:1006C0007A0290917B02009711F00E94A302FF91A1
:1006D000EF91BF91AF919F918F917F916F915F91BA
:1006E0004F913F912F910F900FBE0F901F90189533
:1006F000CF92DF92EF92FF920F931F93CF93DF93EE
:10070000EC017A018B01188A1F861E861D861C86C5
:100710001B861A86198620E030E06901CC0CDD1CAE
:10072000C20ED31EB601660F771F660F771FAB018F
:1007300048595F4FFA0185919591A591B4918E1515
:100740009F05A007B107E9F4FB01E459FF4F85912C
:1007500094919A878987FB01E259FF4F8591949183
:100760009C878B87FB01E059FF4F859194919E8771
:100770008D87FB01EE58FF4F85919491988B8F8761
:1007800006C02F5F3F4F2C30310509F0C6CF8D8555
:100790009E85892B09F44CC03A81383090F48091C1
:1007A000680084608093680020916D0081E090E093
:1007B00002C0880F991F3A95E2F7282B20936D000D
:1007C0002FC03E30B0F48091680081608093680053
:1007D00040916B00232F30E02850304081E090E0C2
:1007E00002C0880F991F2A95E2F7482B40936B00AF
:1007F00017C03631A8F48091680082608093680049
:1008000040916C00232F30E02E50304081E090E08A
:1008100002C0880F991F2A95E2F7482B40936C007D
:100820008F85988920E001972FEF8F3F9207D9F7A6
:1008300080917A0290917B028C179D0771F0198A42
:100840009FB7F8941092BC028091BC028093BD02C5
:10085000D0937B02C0937A029FBFDF91CF911F910B
:100860000F91FF90EF90DF90CF900895FC01809161
:100870007A0290917B028E179F0779F0118A9FB7B9
:10088000F8941092BC028091BC028093BD02F09358
:100890007B02E0937A029FBF06C09091BD028091D7
:1008A000BC02981719F42FEF3FEF0FC0E091BD0283
:1008B000F0E0E458FD4F20818091BD0290E0019668
:1008C0008F7390708093BD0230E0C9010895FC01E0
:1008D00080917A0290917B028E179F0781F0118A96
:1008E0009FB7F8941092BC028091BC028093BD0225
:1008F000F0937B02E0937A029FBF80E0089580919D
:10090000BC022091BD0290E0805C9F4F821B910948
:1009100060E470E00E949E1208950F931F93DC0123
:100920001F968D919C915097892B09F46EC08091F0
:100930007A0290917B028A179B0781F051961C9254
:1009400051979FB7F8941092BC028091BC0280939B
:10095000BD02B0937B02A0937A029FBF1FB7F894A9
:100960001796ED91FC911897908116968C91169799
:100970008095892380831F968D919C915097059631
:1009800020E001972FEF8F3F9207D9F731E040E049
:1009900050E070E000E0832F90E0862397231796C5
:1009A000ED91FC91189716962C911697892B21F0B2
:1009B0008081822B808304C080812095282320831E
:1009C0001F968D919C915097202F01972FEF8F3F6D
:1009D0009207D9F7330F4F5F5F4F48305105D9F673
:1009E0001796ED91FC911897808116969C91169719
:1009F000892B80831FBF1F968D919C91509720E07B
:100A000001972FEF8F3F9207D9F71F910F9108950C
:100A1000FF920F931F938C01F62E862F60E00E94A9
:100A200002108F2D61E00E942210D8011296FC92D4
:100A300012978F2D90E0FC01E65DFE4FE491139636
:100A4000EC9313978A5E9E4FFC016491E62FF0E0D1
:100A5000EE0FFF1FE45FFE4F8591949115969C93D6
:100A60008E9314971F910F91FF900895FF920F930B
:100A70001F938C01F62E862F61E00E9402108F2DAD
:100A800061E00E9422108F2D90E0FC01E65DFE4F98
:100A9000E491D8011696EC9316978A5E9E4FFC015E
:100AA0006491E62FF0E0EE0FFF1FEE5FFE4F8591A1
:100AB000949118969C938E9317971F910F91FF9086
:100AC0000895FF920F931F938C01F62E8DE692E00E
:100AD000F801918380831286118614861386168608
:100AE0001586108A1786118AC801642F0E94360560
:100AF000C8016F2D0E9408051F910F91FF90089566
:100B00008EEB92E067E048E00E94610580ED92E0A4
:100B10000E94350188ED92E00E94350180EE92E05E
:100B20000E943501089582E060E00E94221081E079
:100B300060E00E94221080E060E00E942210089590
:100B4000EF92FF920F931F9389E1E82EF12C012D74
:100B5000112D82E061E00E94221081E061E00E949C
:100B6000221080E061E00E942210C801B7010E94BB
:100B7000800F82E060E00E94221081E061E00E942C
:100B8000221080E060E00E942210C801B7010E949C
:100B9000800F82E061E00E94221081E060E00E940C
:100BA000221080E060E00E942210C801B7010E947C
:100BB000800F82E061E00E94221081E060E00E94EC
:100BC000221080E061E00E942210C801B7010E945B
:100BD000800F82E060E00E94221081E060E00E94CD
:100BE000221080E061E00E942210C801B7010E943B
:100BF000800F0E949305C801B7010E94800F85E015
:100C000090E0A0E0B0E0E80EF91E0A1F1B1F92E37F
:100C1000E916F1040105110509F09BCF1F910F9111
:100C2000FF90EF900895BC018EEB92E00E941C11A2
:100C300008958091FC029091FD0201969093FD022F
:100C40008093FC02C2977CF186E061E00E94221052
:100C50001092FD021092FC0282E00E94E40F909339
:100C6000F2028093F10280E00E94E40F9093F00280
:100C70008093EF0281E00E94E40F9093F40280934E
:100C8000F3028091F902882341F486E061E00E943A
:100C9000221081E08093F902089586E060E00E94CE
:100CA00022101092F9020895AF92BF92CF92DF9274
:100CB000EF92FF920F931F938536910514F084E60F
:100CC00090E097FF02C080E090E000D000D064E6A2
:100CD00070E0681B790B882777FD8095982F26E9AF
:100CE00030E040E050E0EDB7FEB72183328343832C
:100CF000548320E030E040E050E0BAE0EB2EF12CED
:100D0000012D112DA4E6AA2EB12CC12CD12C0E94AC
:100D1000EE119B01AC010F900F900F900F9088ED9A
:100D200092E0B9010E9442011F910F91FF90EF9054
:100D3000DF90CF90BF90AF900895009719F0019782
:100D400059F405C080EE92E060E070E009C080EEEA
:100D500092E06AE570E004C080EE92E064EB70E03F
:100D60000E9442010895009719F0019759F405C0B7
:100D700080ED92E060E070E009C080ED92E06AE50D
:100D800070E004C080ED92E06AEA70E00E944201E7
:100D90000895009719F0019759F405C088ED92E085
:100DA00068E770E009C088ED92E06EE370E004C08F
:100DB00088ED92E069E070E00E94420108950F938F
:100DC0001F938C010E94C906C8010E94B306C80186
:100DD0000E949D061F910F910895009719F00197A9
:100DE000B9F40BC080ED92E060E070E00E94420137
:100DF00088ED92E068E770E015C080ED92E06AE56A
:100E000070E00E94420188ED92E06EE370E00AC05B
:100E100080ED92E064EB70E00E94420188ED92E088
:100E200065E070E00E9442010895EF92FF920F93F7
:100E30001F93CF93DF937C010E94890104E110E0AE
:100E4000C0E0D0E00EC00C171D0724F40C5E1F4F4D
:100E50000E94890161E070E080E090E00E94800FD4
:100E60002196EC16FD067CF7DF91CF911F910F9133
:100E7000FF90EF900895CF93DF93C0E0D0E0CE01D4
:100E80000E9454068AE090E00E9415072196C5361C
:100E9000D105A9F788EE93E00E941507C4E6D0E0DB
:100EA000CE010E9454068AE090E00E941507219727
:100EB000B9F7DF91CF91089580E090E00E94DF06BE
:100EC00086E990E00E94150782E090E00E949D066E
:100ED00082E390E00E94150781E090E00E94ED0619
:100EE00081E090E00E949D0686E990E00E9415074F
:100EF000089581E090E00E94DF0686E990E00E947C
:100F0000150780E090E00E94B30682E090E00E9426
:100F1000C90682E390E00E94150782E090E00E94FB
:100F20009D0686E990E00E94150781E090E00E940E
:100F3000DF0686E990E00E94150780E090E00E94BD
:100F4000C90682E090E00E94B30682E390E00E942E
:100F5000150782E090E00E949D0686E990E00E94DD
:100F600015070895CF93DF93CCE2D1E080E061E0F4
:100F70000E94221082E090E00E94DF06CE010E94D3
:100F8000150781E061E00E94221081E090E00E945C
:100F9000DF06CE010E94150782E061E00E94221068
:100FA00080E090E00E94DF06CE010E94150782E0FB
:100FB00060E00E94221081E060E00E94221080E048
:100FC00060E00E942210E29789F6DF91CF910895A8
:100FD000CF93DF9380E090E00E94DF0684E690E00C
:100FE0000E941507C2E0D0E080E090E00E94C906B0
:100FF000CE010E94150782E090E00E94C90680E0C1
:1010000090E00E94B306CE010E94150782E090E0B6
:101010000E94B306CE010E94150781E090E00E9475
:10102000DF06CE010E9415076E96CA37D105E1F69C
:10103000DF91CF910895CF93DF9380E090E00E94FD
:10104000DF0684E690E00E941507C2E0D0E080E071
:1010500090E00E94C906CE010E94150782E090E050
:101060000E94C90680E090E00E94B306CE010E9473
:10107000150782E090E00E94B306CE010E9415079A
:1010800081E090E00E94DF06CE010E9415076E9677
:10109000CA37D105E1F6DF91CF910895CF93DF9361
:1010A000C9E1D0E082E061E00E94221080E090E09F
:1010B0000E949D06CE010E94150782E090E00E94EA
:1010C0009D0680E090E00E94C906CE010E941507AF
:1010D00082E090E00E94C906CE010E94150781E0DF
:1010E00090E00E94DF0684E690E00E94150782E00F
:1010F00060E00E94221080E090E00E949D06CE01F8
:101100000E94150782E090E00E949D0680E090E03A
:101110000E94B306CE010E94150782E090E00E9473
:10112000B306CE010E94150781E090E00E94DF0621
:1011300084E690E00E9415072596CE36D10509F089
:10114000B1CFDF91CF9108956F927F928F929F924E
:10115000AF92BF92CF92DF92EF92FF920F931F93C5
:1011600000D000D06091F1027091F202882777FDE3
:101170008095982FB2E06B2E712C812C912CEDB7BD
:10118000FEB761827282838294822CE231E040E079
:1011900050E0ACEBEA2EA2E0FA2E012D112DAA248C
:1011A000BB2465010E94EE11DC01CB010F900F9072
:1011B0000F900F900E94C90600D000D06091EF02FE
:1011C0007091F002882777FD8095982FEDB7FEB7D4
:1011D00061827282838294822CE231E040E050E0AE
:1011E0000E94EE11DC01CB010F900F900F900F9039
:1011F0000E94B30600D000D06091F3027091F40217
:10120000882777FD8095982FEDB7FEB761827282AF
:10121000838294822CE231E040E050E00E94EE11A3
:10122000DC01CB010F900F900F900F900E949D0654
:1012300082E090E00E9415071F910F91FF90EF90C0
:10124000DF90CF90BF90AF909F908F907F906F90E6
:10125000089580E061E00E9422100E94190680E05B
:1012600060E00E94221062E370E080E090E00E9463
:10127000800F0E94A40868EC70E080E090E00E947B
:10128000800F8091F5029091F6028536910574F0F9
:101290001092F6021092F5028AE091E00E94130685
:1012A00068EC70E080E090E00E94800F089582E09A
:1012B00090E00E949D0680E090E00E94B30680E0EE
:1012C00090E00E94C9060E94930580E061E00E94C0
:1012D00022108CE291E00E94150782E061E00E94FA
:1012E000221082E090E00E94C90688EC90E00E9403
:1012F000150782E060E00E94221084E690E00E94E0
:10130000150782E090E00E94B30680E090E00E9422
:10131000C90682E061E00E94221088EC90E00E9401
:10132000150782E060E00E94221084E690E00E94AF
:10133000150708950E941906809134029091350294
:1013400020912A0230912B02820F931F90932B023F
:1013500080932A0220913002309131028217930744
:1013600054F030932B0220932A028CEF9FEF90933E
:101370003502809334022091320230913302809101
:101380002A0290912B022817390754F030932B0230
:1013900020932A0284E090E09093350280933402F7
:1013A00080913A0290913B0220912C0230912D02C3
:1013B000820F931F90932D0280932C02209136026E
:1013C000309137028217930754F030932D02209307
:1013D0002C028CEF9FEF90933B0280933A02209176
:1013E00038023091390280912C0290912D022817F9
:1013F000390754F030932D0220932C0284E090E0C2
:1014000090933B0280933A02809140029091410276
:1014100020912E0230912F02820F931F90932F0262
:1014200080932E0220913C0230913D028217930757
:1014300054F030932F0220932E028CEF9FEF909365
:1014400041028093400220913E0230913F02809100
:101450002E0290912F022817390754F030932F0253
:1014600020932E0284E090E090934102809340020A
:1014700060912A0270912B0288ED92E00E94420155
:1014800060912C0270912D0280ED92E00E94420149
:1014900060912A0270912B0280EE92E00E9442013C
:1014A00085E090E00E94150708951F938EEB92E06F
:1014B0000E946704882309F4BCC08EEB92E00E946E
:1014C0003604182F81E191E00E941306143309F4C9
:1014D0004AC0153374F41133F9F0123324F4103385
:1014E00009F09EC090C0123321F1133309F098C067
:1014F0002DC0173309F45EC018333CF4153309F4DA
:101500003FC0163309F08CC048C0183309F45FC0DF
:10151000193309F085C068C08EEB92E06FE171E08D
:101520000E94FD1082E291E00E9413060E949A0937
:1015300080C08EEB92E06AE271E00E94FD108DE2C5
:1015400091E00E9413060E94570973C08EEB92E04F
:101550006CE371E00E94FD108FE391E00E9413069E
:101560000E944E0866C08EEB92E068E471E00E9433
:10157000FD108BE491E00E9413060E941B0859C0E5
:101580008EEB92E06BE571E00E94FD108EE591E03C
:101590000E9413060E94E8074CC08EEB92E069E6B9
:1015A00071E00E94FD108AE091E00E9413060E9403
:1015B000B2073FC08EEB92E06CE671E00E94FD1036
:1015C0008FE691E00E9413060E94790732C08EEBED
:1015D00092E06BE771E00E94FD108EE791E00E94BF
:1015E00013060E945C0725C08EEB92E06BE871E069
:1015F0000E94FD108EE891E00E94130685E090E0C5
:101600000E94ED0616C08EEB92E068E971E00E9440
:10161000FD108BE991E00E9413060E943B0709C070
:101620008EEB92E0612F0E94F5108BEA91E00E9410
:1016300013061F9108958091FA029091FB02019682
:101640009093FB028093FA02079724F41092FB0216
:101650001092FA02E091FA02F091FB02EE0FFF1FE6
:10166000E05BFD4F808191810E94C906E091FA0202
:10167000F091FB02EE0FFF1FEC5BFD4F808191812B
:101680000E94B306E091FA02F091FB02EE0FFF1FF9
:10169000E45AFD4F808191810E949D0685E090E093
:1016A0000E941507089560E070E080E090E024E07B
:1016B00030E040E050E00E94591261307105A9F01D
:1016C0006230710549F1672BE1F582E061E00E942B
:1016D000221064EF71E080E090E00E94800F82E0D1
:1016E00060E00E94221082E03BC082E061E00E9444
:1016F000221064EF71E080E090E00E94800F82E0B1
:1017000060E00E94221081E061E00E9422100E94AD
:1017100057090E94570927C082E061E00E94221009
:1017200064EF71E080E090E00E94800F82E060E072
:101730000E94221080E061E00E9422100E944E0868
:1017400012C082E061E00E94221064EF71E080E04C
:1017500090E00E94800F80E061E00E94221081E012
:1017600061E00E9422106AEF70E080E090E028EBD8
:101770003BE040E050E00E9459120E94800F089523
:10178000EF92FF920F931F93DF93CF930F92CDB7FA
:10179000DEB78091F7029091F80201969093F802DB
:1017A0008093F702209142023091430228173907B3
:1017B00014F0198216C01092F8021092F70264E633
:1017C00070E080E090E028EE33E040E050E00E94DE
:1017D000591270934302609342020E94530B81E0BE
:1017E00089830091EC0210E083E10E946F100817DA
:1017F000190711F491E099830091ED0210E082E164
:101800000E946F100817190711F4A1E0A983009135
:10181000EE0210E081E10E946F100817190721F015
:10182000B981B13009F0C1C18091E8029091E9021B
:101830009093EB028093EA021092F6021092F50266
:101840008EEC91E00E9413060E94A0058AEF90E0C2
:101850000E94150783E10E946F10892B51F481E0EB
:101860008093EC0281E090E09093E9028093E8029B
:1018700006C01092EC021092E9021092E80282E196
:101880000E946F10892B69F481E08093ED028091B2
:10189000E8029091E90208969093E9028093E802A9
:1018A00002C01092ED0281E10E946F10892B69F451
:1018B00081E08093EE028091E8029091E902049623
:1018C0009093E9028093E80202C01092EE023AE09F
:1018D000E32EF12C012D112D82E06091EE020E9489
:1018E000221081E06091EC020E94221080E0609161
:1018F000ED020E942210C801B7010E94800F82E011
:101900006091ED020E94221081E06091EE020E943F
:10191000221080E06091EC020E942210C801B70101
:101920000E94800F82E06091EC020E94221081E010
:101930006091ED020E94221080E06091EE020E9410
:101940002210C801B7010E94800F85E090E0A0E05E
:10195000B0E0E80EF91E0A1F1B1F9EE1E916F10414
:101960000105110509F0B8CF82E060E00E94221065
:1019700081E060E00E94221080E060E00E9422107E
:101980006091E8027091E9028EEB92E00E94E6110C
:101990008AED91E00E9413068091E8029091E9029D
:1019A00084309105D9F18530910534F4009781F0A8
:1019B000019709F0FAC015C08830910509F48CC070
:1019C0008930910509F4B9C0059709F0EEC04FC000
:1019D00080E090E00E94DF0684EF91E00E9415070E
:1019E000E4C082E061E00E94221081E060E00E9499
:1019F000221080E060E00E94221081E090E00E94CE
:101A0000DF0684EF91E00E9415078AE790E090934B
:101A100031028093300282E090E07AC082E060E0A0
:101A20000E94221081E061E00E94221080E060E0CC
:101A30000E94221081E090E00E94DF0684EF91E096
:101A40000E94150782E590E0909331028093300266
:101A50008AE290E090933302809332028EE690E027
:101A6000909337028093360286E490E08EC082E045
:101A700061E00E94221081E061E00E94221080E07B
:101A800060E00E94221082E090E00E94DF0684EF76
:101A900091E00E9415078AE790E0909331028093CD
:101AA000300282E090E0909333028093320286E924
:101AB00090E090933702809336028EE190E090930D
:101AC0003902809338028EE690E090933D02809335
:101AD0003C0286E490E065C082E060E00E94221053
:101AE00081E060E00E94221080E061E00E9422100C
:101AF00082E090E00E94DF0684EF91E00E941507EB
:101B000082E590E090933102809330028AE290E087
:101B1000909333028093320226E930E0309337020B
:101B2000209336028EE190E0909339028093380240
:101B300030933D0220933C0234C082E061E00E9479
:101B4000221081E060E00E94221080E061E00E94AB
:101B5000221082E090E00E94DF0684EF91E00E9474
:101B6000150782E590E090933102809330028AE27B
:101B700090E0909333028093320282E890E0909359
:101B800037028093360282E390E09093390280938B
:101B9000380286E990E090933D0280933C028EE10A
:101BA00090E090933F0280933E028091F5029091E5
:101BB000F60201969093F6028093F5028091E80276
:101BC0009091E9028530910544F482309105ACF49E
:101BD000009749F0019719F50DC089309105C4F0BF
:101BE0000997E9F418C01092F8021092F7020E94C7
:101BF000550A15C00E94290912C080EF91E00E9489
:101C000013060E941B0B84E690E00E94150707C094
:101C10000E949A0904C00E9419060E94A4080F900D
:101C2000CF91DF911F910F91FF90EF900895CF9387
:101C3000DF9382E061E00E94021081E061E00E9497
:101C4000021080E061E00E94021083E160E00E94E7
:101C5000021083E161E00E94221082E160E00E94B4
:101C6000021082E161E00E94221081E160E00E94A6
:101C7000021081E161E00E94221086E061E00E9492
:101C8000021086E060E00E942210C0E0D0E086E012
:101C900061E00E94221069E170E080E090E00E9423
:101CA000800F86E060E00E94221069E170E080E031
:101CB00090E00E94800F2196C436D10541F785E05F
:101CC0000E94E40F0E94771280ED92E063E070E0E2
:101CD0000E94830288ED92E064E070E00E9483023B
:101CE00080EE92E065E070E00E94830280E090E088
:101CF0000E94DF0686E990E00E94150782E061E01D
:101D00000E94221081E061E00E94221080E061E0E8
:101D10000E94221068EE73E080E090E00E94800F45
:101D200082E060E00E94221081E060E00E942210C8
:101D300080E060E00E94221087E060E00E940210D4
:101D400088E061E00E9402108EEB92E040E855E2EC
:101D500060E070E00E9478038DEF91E00E9413062E
:101D60008DEF91E00E9413068FEF91E00E94130621
:101D70006CE271E080E090E00E94800F85E092E0EC
:101D80000E9413066CE271E080E090E00E94800FF8
:101D90008EEB92E063E172E00E94FD1068EC70E06F
:101DA00080E090E00E94800F8EEB92E066E172E0AE
:101DB0000E94FD1068EC70E080E090E00E94800FCF
:101DC0008EEB92E06AE172E00E94FD1064E670E042
:101DD00080E090E00E94800F8EEB92E06CE172E078
:101DE0000E94FD1064E670E080E090E00E94800FA9
:101DF0008EEB92E06EE172E00E94FD1064E670E00E
:101E000080E090E00E94800F8EEB92E060E272E052
:101E10000E94FD1064E670E080E090E00E94800F78
:101E20008EEB92E062E272E00E94FD1064E670E0E8
:101E300080E090E00E94800F84E292E00E9413060E
:101E4000DF91CF9108950E94AA0F0E94170E0E9461
:101E5000C00BFDCF1F920F920FB60F9211242F933C
:101E60003F938F939F93AF93BF9380910203909181
:101E70000303A0910403B09105033091060301967A
:101E8000A11DB11D232F2D5F2D3720F02D57019659
:101E9000A11DB11D209306038093020390930303B9
:101EA000A0930403B09305038091FE029091FF027A
:101EB000A0910003B09101030196A11DB11D809373
:101EC000FE029093FF02A0930003B0930103BF9121
:101ED000AF919F918F913F912F910F900FBE0F90D7
:101EE0001F9018958FB7F894209102033091030347
:101EF00040910403509105038FBFB901CA010895B1
:101F0000EF92FF920F931F937B018C018FB7F89490
:101F10004091020350910303609104037091050303
:101F20008FBF2FB7F8948091020390910303A09183
:101F30000403B09105032FBF841B950BA60BB70BB1
:101F4000E816F9060A071B0760F71F910F91FF902B
:101F5000EF900895789484B5826084BD84B58160E3
:101F600084BD85B5826085BD85B5816085BDEEE6A1
:101F7000F0E0808181608083E1E8F0E08081826030
:101F80008083808181608083E0E8F0E080818160EF
:101F90008083E1EBF0E0808184608083E0EBF0E01F
:101FA000808181608083EAE7F0E0808184608083C3
:101FB000808182608083808181608083808180686D
:101FC00080831092C10008958F709091680292955D
:101FD000990F990F907C982B90937C0080917A00B8
:101FE000806480937A0080917A0086FDFCCF2091F6
:101FF000780040917900942F80E030E0282B392B35
:10200000C9010895282F30E0C901865D9E4FFC016B
:1020100094912A5E3E4FF9018491882391F0E82F34
:10202000F0E0EE0FFF1FE850FF4FA591B49166233B
:1020300029F48C91909589238C9308958C91892B08
:102040008C930895482F50E0CA01825C9E4FFC019A
:102050002491CA01865D9E4FFC0194914A5E5E4FB9
:10206000FA0134913323D1F1222331F1233021F4C9
:10207000809180008F7705C0243031F480918000FA
:102080008F7D8093800018C0213019F484B58F773C
:1020900004C0223021F484B58F7D84BD0DC026306C
:1020A00021F48091B0008F7705C0273029F480910A
:1020B000B0008F7D8093B000E32FF0E0EE0FFF1FA4
:1020C000EE5FFE4FA591B491662329F48C91909513
:1020D00089238C9308958C91892B8C930895682F74
:1020E00070E0CB01825C9E4FFC012491CB01865DA8
:1020F0009E4FFC0144916A5E7E4FFB0194919923AF
:1021000019F420E030E038C0222331F1233021F4EB
:10211000809180008F7705C0243031F48091800059
:102120008F7D8093800018C0213019F484B58F779B
:1021300004C0223021F484B58F7D84BD0DC02630CB
:1021400021F48091B0008F7705C0273029F4809169
:10215000B0008F7D8093B000892F90E0880F991F89
:10216000845F9E4FFC01A591B4918C9120E030E0FA
:10217000842311F021E030E0C90108950F931F93EB
:10218000CF93DF938C01EB0109C02196D801ED912B
:10219000FC910190F081E02DC801099568816623CA
:1021A000A1F7DF91CF911F910F910895EF92FF92C8
:1021B0000F931F93CF93DF938C017B01EA010CC037
:1021C000D7016D917D01D801ED91FC910190F081D5
:1021D000E02DC80109952197209791F7DF91CF91C4
:1021E0001F910F91FF90EF900895DC01ED91FC910C
:1021F0000190F081E02D09950895DC01ED91FC91AD
:102200000280F381E02D099508950F931F938C01AF
:10221000DC01ED91FC910190F081E02D6DE00995DC
:10222000D801ED91FC910190F081E02DC8016AE0A8
:1022300009951F910F9108950F931F938C010E9490
:10224000FD10C8010E9405111F910F9108952F9252
:102250003F924F925F926F927F928F929F92AF9236
:10226000BF92CF92DF92EF92FF920F931F93DF9373
:10227000CF93CDB7DEB7A0970FB6F894DEBF0FBEF1
:10228000CDBF1C016A017B01411551056105710536
:1022900049F4DC01ED91FC910190F081E02D60E3C7
:1022A000099554C0882499245401422E552466244B
:1022B000772401E010E00C0F1D1F080D191DC70148
:1022C000B601A30192010E94B112F8016083089443
:1022D000811C911CA11CB11CC701B601A301920174
:1022E0000E94B112C901DA016C017D01C114D1044F
:1022F000E104F104F1F681E0E82EF12CEC0EFD1E74
:10230000E80CF91C3E010894611C711CD501C40144
:102310000197A109B1096C01C818D90814C0F601C8
:10232000EE0DFF1D60816A3010F4605D01C0695CD4
:10233000D101ED91FC910190F081E02DC101099551
:102340000894E108F1086E147F0449F7A0960FB6CF
:10235000F894DEBF0FBECDBFCF91DF911F910F91DB
:10236000FF90EF90DF90CF90BF90AF909F908F90B5
:102370007F906F905F904F903F902F900895EF92D5
:10238000FF920F931F93CF93DF93EC017A018B01A0
:1023900077FF0FC0E881F9810190F081E02D6DE2B7
:1023A000099510950095F094E094E11CF11C011D35
:1023B000111DCE01B801A7012AE00E942711DF916B
:1023C000CF911F910F91FF90EF900895AB01662779
:1023D00057FD6095762F0E94BF1108952F923F926E
:1023E0004F925F926F927F928F929F92AF92BF9225
:1023F000CF92DF92EF92FF920F931F93DF93CF93D1
:10240000CDB7DEB73B014C0119012A016D897E89E8
:102410008F89988D6A197B098C099D09621A730A44
:10242000840A950AA40193010E947F12E218F3081E
:1024300004091509A80197010E94D3122A0D3B1D1A
:102440004C1D5D1DB901CA01CF91DF911F910F9104
:10245000FF90EF90DF90CF90BF90AF909F908F90C4
:102460007F906F905F904F903F902F900895EF92E4
:10247000FF920F931F937B018C01611571058105FC
:10248000910529F420E030E040E050E00BC00E94CC
:102490002701A80197010E94D312AC01CB01DA01F8
:1024A0009C01AD01B901CA011F910F91FF90EF90FE
:1024B0000895EF92FF920F931F937B018C01621797
:1024C00073078407950764F4261B370B480B590BD9
:1024D000CA01B9010E943712E60EF71E081F191F24
:1024E000B701C8011F910F91FF90EF9008950097D9
:1024F00029F0BC0180E090E00E942C010895629FC9
:10250000D001739FF001829FE00DF11D649FE00DEB
:10251000F11D929FF00D839FF00D749FF00D659F4C
:10252000F00D9927729FB00DE11DF91F639FB00D4B
:10253000E11DF91FBD01CF011124089597FB092E5C
:1025400007260AD077FD04D049D006D000201AF41F
:10255000709561957F4F0895F6F7909581959F4FFF
:102560000895A1E21A2EAA1BBB1BFD010DC0AA1FD4
:10257000BB1FEE1FFF1FA217B307E407F50720F0EC
:10258000A21BB30BE40BF50B661F771F881F991F67
:102590001A9469F760957095809590959B01AC01B0
:1025A000BD01CF01089597FB092E05260ED057FDDA
:1025B00004D0D7DF0AD0001C38F4509540953095F0
:1025C00021953F4F4F4F5F4F0895F6F790958095B7
:1025D000709561957F4F8F4F9F4F0895AA1BBB1B2E
:1025E00051E107C0AA1FBB1FA617B70710F0A61B13
:1025F000B70B881F991F5A95A9F780959095BC0134
:10260000CD010895EE0FFF1F0590F491E02D099480
:102610002F923F924F925F926F927F928F929F92F2
:10262000AF92BF92CF92DF92EF92FF920F931F93E0
:10263000CF93DF93CDB7DEB7CA1BDB0B0FB6F89491
:10264000DEBF0FBECDBF09942A88398848885F84D1
:102650006E847D848C849B84AA84B984C884DF8042
:10266000EE80FD800C811B81AA81B981CE0FD11D26
:102670000FB6F894DEBF0FBECDBFED010895F894FC
:02268000FFCF8A
:102682006177772C206E756C6C0053717561747371
:1026920000646F6E652072656164696E672E003139
:1026A2002D004F6E654C6F6F7000322D004C6F6FB6
:1026B2006B53696465546F5369646500332D00532D
:1026C2006C6F7757616C6B00342D004861726454F3
:1026D2006F53746172626F61726400352D004861DC
:1026E2007264546F506F727400362D00372D005390
:1026F200746570466F727761726400382D0053639F
:102702006F6F74466F727761726400392D00666F65
:102712007277617264203500302D004D6F76654C02
:1027220065667455704E446F776E003F205768613E
:1027320074277320746861743F005475726E546F0D
:1027420077617264735468654C69676874004368A2
:10275200616E67696E672E2E2E00206973202074C9
:1027620068652073776974636820737461746500A7
:1027720073776974636820706F7320340020006877
:10278200656C6C6F004920616D206120726F626F11
:10279200742100492000616D200043007500720021
:1027A20069006F002E00010000003E005A005A002E
:1027B2007A000200010096001E00FFFF96001E0034
:1027C200FFFF64000200020002000000000000009F
:1027D20002000000000000000200020000000000F1
:1027E200020002000200000001000000008D04BE91
:0427F20010D61000ED
:00000001FF
